{
	"contracts/PriceConverter.sol": {
		"PriceConverter": {
			"abi": [
				{
					"inputs": [],
					"name": "getVersion",
					"outputs": [
						{
							"internalType": "uint256",
							"name": "",
							"type": "uint256"
						}
					],
					"stateMutability": "view",
					"type": "function"
				}
			],
			"devdoc": {
				"kind": "dev",
				"methods": {},
				"version": 1
			},
			"evm": {
				"assembly": "    /* \"contracts/PriceConverter.sol\":193:1305  library PriceConverter{\r... */\n  dataSize(sub_0)\n  dataOffset(sub_0)\n  0x0b\n  dup3\n  dup3\n  dup3\n  codecopy\n  dup1\n  mload\n  0x00\n  byte\n  0x73\n  eq\n  tag_1\n  jumpi\n  mstore(0x00, 0x4e487b7100000000000000000000000000000000000000000000000000000000)\n  mstore(0x04, 0x00)\n  revert(0x00, 0x24)\ntag_1:\n  mstore(0x00, address)\n  0x73\n  dup2\n  mstore8\n  dup3\n  dup2\n  return\nstop\n\nsub_0: assembly {\n        /* \"contracts/PriceConverter.sol\":193:1305  library PriceConverter{\r... */\n      eq(address, deployTimeAddress())\n      mstore(0x40, 0x80)\n      jumpi(tag_1, lt(calldatasize, 0x04))\n      shr(0xe0, calldataload(0x00))\n      dup1\n      0x0d8e6e2c\n      eq\n      tag_2\n      jumpi\n    tag_1:\n      0x00\n      dup1\n      revert\n        /* \"contracts/PriceConverter.sol\":754:967  function getVersion() public view returns (uint256){\r... */\n    tag_2:\n      tag_3\n      tag_4\n      jump\t// in\n    tag_3:\n      mload(0x40)\n      tag_5\n      swap2\n      swap1\n      tag_6\n      jump\t// in\n    tag_5:\n      mload(0x40)\n      dup1\n      swap2\n      sub\n      swap1\n      return\n    tag_4:\n        /* \"contracts/PriceConverter.sol\":797:804  uint256 */\n      0x00\n        /* \"contracts/PriceConverter.sol\":819:850  AggregatorV3Interface priceFeed */\n      dup1\n        /* \"contracts/PriceConverter.sol\":874:916  0xD4a33860578De61DBAbDc8BFdb98FD742fA7028e */\n      0xd4a33860578de61dbabdc8bfdb98fd742fa7028e\n        /* \"contracts/PriceConverter.sol\":819:917  AggregatorV3Interface priceFeed= AggregatorV3Interface(0xD4a33860578De61DBAbDc8BFdb98FD742fA7028e) */\n      swap1\n      pop\n        /* \"contracts/PriceConverter.sol\":936:945  priceFeed */\n      dup1\n        /* \"contracts/PriceConverter.sol\":936:953  priceFeed.version */\n      0xffffffffffffffffffffffffffffffffffffffff\n      and\n      0x54fd4d50\n        /* \"contracts/PriceConverter.sol\":936:955  priceFeed.version() */\n      mload(0x40)\n      dup2\n      0xffffffff\n      and\n      0xe0\n      shl\n      dup2\n      mstore\n      0x04\n      add\n      0x20\n      mload(0x40)\n      dup1\n      dup4\n      sub\n      dup2\n      dup7\n      dup1\n      extcodesize\n      iszero\n      dup1\n      iszero\n      tag_8\n      jumpi\n      0x00\n      dup1\n      revert\n    tag_8:\n      pop\n      gas\n      staticcall\n      iszero\n      dup1\n      iszero\n      tag_10\n      jumpi\n      returndatasize\n      0x00\n      dup1\n      returndatacopy\n      revert(0x00, returndatasize)\n    tag_10:\n      pop\n      pop\n      pop\n      pop\n      mload(0x40)\n      returndatasize\n      not(0x1f)\n      0x1f\n      dup3\n      add\n      and\n      dup3\n      add\n      dup1\n      0x40\n      mstore\n      pop\n      dup2\n      add\n      swap1\n      tag_11\n      swap2\n      swap1\n      tag_12\n      jump\t// in\n    tag_11:\n        /* \"contracts/PriceConverter.sol\":929:955  return priceFeed.version() */\n      swap2\n      pop\n      pop\n        /* \"contracts/PriceConverter.sol\":754:967  function getVersion() public view returns (uint256){\r... */\n      swap1\n      jump\t// out\n        /* \"#utility.yul\":7:150   */\n    tag_14:\n      0x00\n        /* \"#utility.yul\":95:101   */\n      dup2\n        /* \"#utility.yul\":89:102   */\n      mload\n        /* \"#utility.yul\":80:102   */\n      swap1\n      pop\n        /* \"#utility.yul\":111:144   */\n      tag_16\n        /* \"#utility.yul\":138:143   */\n      dup2\n        /* \"#utility.yul\":111:144   */\n      tag_17\n      jump\t// in\n    tag_16:\n        /* \"#utility.yul\":70:150   */\n      swap3\n      swap2\n      pop\n      pop\n      jump\t// out\n        /* \"#utility.yul\":156:440   */\n    tag_12:\n      0x00\n        /* \"#utility.yul\":275:277   */\n      0x20\n        /* \"#utility.yul\":263:272   */\n      dup3\n        /* \"#utility.yul\":254:261   */\n      dup5\n        /* \"#utility.yul\":250:273   */\n      sub\n        /* \"#utility.yul\":246:278   */\n      slt\n        /* \"#utility.yul\":243:245   */\n      iszero\n      tag_19\n      jumpi\n        /* \"#utility.yul\":291:292   */\n      0x00\n        /* \"#utility.yul\":288:289   */\n      dup1\n        /* \"#utility.yul\":281:293   */\n      revert\n        /* \"#utility.yul\":243:245   */\n    tag_19:\n        /* \"#utility.yul\":334:335   */\n      0x00\n        /* \"#utility.yul\":359:423   */\n      tag_20\n        /* \"#utility.yul\":415:422   */\n      dup5\n        /* \"#utility.yul\":406:412   */\n      dup3\n        /* \"#utility.yul\":395:404   */\n      dup6\n        /* \"#utility.yul\":391:413   */\n      add\n        /* \"#utility.yul\":359:423   */\n      tag_14\n      jump\t// in\n    tag_20:\n        /* \"#utility.yul\":349:423   */\n      swap2\n      pop\n        /* \"#utility.yul\":305:433   */\n      pop\n        /* \"#utility.yul\":233:440   */\n      swap3\n      swap2\n      pop\n      pop\n      jump\t// out\n        /* \"#utility.yul\":446:572   */\n    tag_21:\n        /* \"#utility.yul\":541:565   */\n      tag_23\n        /* \"#utility.yul\":559:564   */\n      dup2\n        /* \"#utility.yul\":541:565   */\n      tag_24\n      jump\t// in\n    tag_23:\n        /* \"#utility.yul\":536:539   */\n      dup3\n        /* \"#utility.yul\":529:566   */\n      mstore\n        /* \"#utility.yul\":519:572   */\n      pop\n      pop\n      jump\t// out\n        /* \"#utility.yul\":578:816   */\n    tag_6:\n      0x00\n        /* \"#utility.yul\":717:719   */\n      0x20\n        /* \"#utility.yul\":706:715   */\n      dup3\n        /* \"#utility.yul\":702:720   */\n      add\n        /* \"#utility.yul\":694:720   */\n      swap1\n      pop\n        /* \"#utility.yul\":730:809   */\n      tag_26\n        /* \"#utility.yul\":806:807   */\n      0x00\n        /* \"#utility.yul\":795:804   */\n      dup4\n        /* \"#utility.yul\":791:808   */\n      add\n        /* \"#utility.yul\":782:788   */\n      dup5\n        /* \"#utility.yul\":730:809   */\n      tag_21\n      jump\t// in\n    tag_26:\n        /* \"#utility.yul\":684:816   */\n      swap3\n      swap2\n      pop\n      pop\n      jump\t// out\n        /* \"#utility.yul\":822:899   */\n    tag_24:\n      0x00\n        /* \"#utility.yul\":888:893   */\n      dup2\n        /* \"#utility.yul\":877:893   */\n      swap1\n      pop\n        /* \"#utility.yul\":867:899   */\n      swap2\n      swap1\n      pop\n      jump\t// out\n        /* \"#utility.yul\":905:1027   */\n    tag_17:\n        /* \"#utility.yul\":978:1002   */\n      tag_29\n        /* \"#utility.yul\":996:1001   */\n      dup2\n        /* \"#utility.yul\":978:1002   */\n      tag_24\n      jump\t// in\n    tag_29:\n        /* \"#utility.yul\":971:976   */\n      dup2\n        /* \"#utility.yul\":968:1003   */\n      eq\n        /* \"#utility.yul\":958:960   */\n      tag_30\n      jumpi\n        /* \"#utility.yul\":1017:1018   */\n      0x00\n        /* \"#utility.yul\":1014:1015   */\n      dup1\n        /* \"#utility.yul\":1007:1019   */\n      revert\n        /* \"#utility.yul\":958:960   */\n    tag_30:\n        /* \"#utility.yul\":948:1027   */\n      pop\n      jump\t// out\n\n    auxdata: 0xa2646970667358221220f44fcdbd50774066657c8b8c76c4f25d8f8d2fa2b7b3f74252583842936e230864736f6c63430008000033\n}\n",
				"bytecode": {
					"linkReferences": {},
					"object": "6101b5610053600b82828239805160001a607314610046577f4e487b7100000000000000000000000000000000000000000000000000000000600052600060045260246000fd5b30600052607381538281f3fe73000000000000000000000000000000000000000030146080604052600436106100355760003560e01c80630d8e6e2c1461003a575b600080fd5b610042610058565b60405161004f9190610143565b60405180910390f35b60008073d4a33860578de61dbabdc8bfdb98fd742fa7028e90508073ffffffffffffffffffffffffffffffffffffffff166354fd4d506040518163ffffffff1660e01b815260040160206040518083038186803b1580156100b857600080fd5b505afa1580156100cc573d6000803e3d6000fd5b505050506040513d601f19601f820116820180604052508101906100f0919061010b565b91505090565b60008151905061010581610168565b92915050565b60006020828403121561011d57600080fd5b600061012b848285016100f6565b91505092915050565b61013d8161015e565b82525050565b60006020820190506101586000830184610134565b92915050565b6000819050919050565b6101718161015e565b811461017c57600080fd5b5056fea2646970667358221220f44fcdbd50774066657c8b8c76c4f25d8f8d2fa2b7b3f74252583842936e230864736f6c63430008000033",
					"opcodes": "PUSH2 0x1B5 PUSH2 0x53 PUSH1 0xB DUP3 DUP3 DUP3 CODECOPY DUP1 MLOAD PUSH1 0x0 BYTE PUSH1 0x73 EQ PUSH2 0x46 JUMPI PUSH32 0x4E487B7100000000000000000000000000000000000000000000000000000000 PUSH1 0x0 MSTORE PUSH1 0x0 PUSH1 0x4 MSTORE PUSH1 0x24 PUSH1 0x0 REVERT JUMPDEST ADDRESS PUSH1 0x0 MSTORE PUSH1 0x73 DUP2 MSTORE8 DUP3 DUP2 RETURN INVALID PUSH20 0x0 ADDRESS EQ PUSH1 0x80 PUSH1 0x40 MSTORE PUSH1 0x4 CALLDATASIZE LT PUSH2 0x35 JUMPI PUSH1 0x0 CALLDATALOAD PUSH1 0xE0 SHR DUP1 PUSH4 0xD8E6E2C EQ PUSH2 0x3A JUMPI JUMPDEST PUSH1 0x0 DUP1 REVERT JUMPDEST PUSH2 0x42 PUSH2 0x58 JUMP JUMPDEST PUSH1 0x40 MLOAD PUSH2 0x4F SWAP2 SWAP1 PUSH2 0x143 JUMP JUMPDEST PUSH1 0x40 MLOAD DUP1 SWAP2 SUB SWAP1 RETURN JUMPDEST PUSH1 0x0 DUP1 PUSH20 0xD4A33860578DE61DBABDC8BFDB98FD742FA7028E SWAP1 POP DUP1 PUSH20 0xFFFFFFFFFFFFFFFFFFFFFFFFFFFFFFFFFFFFFFFF AND PUSH4 0x54FD4D50 PUSH1 0x40 MLOAD DUP2 PUSH4 0xFFFFFFFF AND PUSH1 0xE0 SHL DUP2 MSTORE PUSH1 0x4 ADD PUSH1 0x20 PUSH1 0x40 MLOAD DUP1 DUP4 SUB DUP2 DUP7 DUP1 EXTCODESIZE ISZERO DUP1 ISZERO PUSH2 0xB8 JUMPI PUSH1 0x0 DUP1 REVERT JUMPDEST POP GAS STATICCALL ISZERO DUP1 ISZERO PUSH2 0xCC JUMPI RETURNDATASIZE PUSH1 0x0 DUP1 RETURNDATACOPY RETURNDATASIZE PUSH1 0x0 REVERT JUMPDEST POP POP POP POP PUSH1 0x40 MLOAD RETURNDATASIZE PUSH1 0x1F NOT PUSH1 0x1F DUP3 ADD AND DUP3 ADD DUP1 PUSH1 0x40 MSTORE POP DUP2 ADD SWAP1 PUSH2 0xF0 SWAP2 SWAP1 PUSH2 0x10B JUMP JUMPDEST SWAP2 POP POP SWAP1 JUMP JUMPDEST PUSH1 0x0 DUP2 MLOAD SWAP1 POP PUSH2 0x105 DUP2 PUSH2 0x168 JUMP JUMPDEST SWAP3 SWAP2 POP POP JUMP JUMPDEST PUSH1 0x0 PUSH1 0x20 DUP3 DUP5 SUB SLT ISZERO PUSH2 0x11D JUMPI PUSH1 0x0 DUP1 REVERT JUMPDEST PUSH1 0x0 PUSH2 0x12B DUP5 DUP3 DUP6 ADD PUSH2 0xF6 JUMP JUMPDEST SWAP2 POP POP SWAP3 SWAP2 POP POP JUMP JUMPDEST PUSH2 0x13D DUP2 PUSH2 0x15E JUMP JUMPDEST DUP3 MSTORE POP POP JUMP JUMPDEST PUSH1 0x0 PUSH1 0x20 DUP3 ADD SWAP1 POP PUSH2 0x158 PUSH1 0x0 DUP4 ADD DUP5 PUSH2 0x134 JUMP JUMPDEST SWAP3 SWAP2 POP POP JUMP JUMPDEST PUSH1 0x0 DUP2 SWAP1 POP SWAP2 SWAP1 POP JUMP JUMPDEST PUSH2 0x171 DUP2 PUSH2 0x15E JUMP JUMPDEST DUP2 EQ PUSH2 0x17C JUMPI PUSH1 0x0 DUP1 REVERT JUMPDEST POP JUMP INVALID LOG2 PUSH5 0x6970667358 0x22 SLT KECCAK256 DELEGATECALL 0x4F 0xCD 0xBD POP PUSH24 0x4066657C8B8C76C4F25D8F8D2FA2B7B3F74252583842936E 0x23 ADDMOD PUSH5 0x736F6C6343 STOP ADDMOD STOP STOP CALLER "
				},
				"gasEstimates": {
					"creation": {
						"codeDepositCost": "87400",
						"executionCost": "160",
						"totalCost": "87560"
					},
					"external": {
						"getVersion()": "infinite"
					},
					"internal": {
						"getConversionRate(uint256)": "infinite",
						"getPrice()": "infinite"
					}
				},
				"methodIdentifiers": {
					"getVersion()": "0d8e6e2c"
				}
			},
			"storageLayout": {
				"storage": [],
				"types": null
			},
			"userdoc": {
				"kind": "user",
				"methods": {},
				"version": 1
			}
		}
	}
}