{
	"contracts/FallbackExample.sol": {
		"FallbackExample": {
			"abi": [
				{
					"stateMutability": "payable",
					"type": "fallback"
				},
				{
					"inputs": [],
					"name": "result",
					"outputs": [
						{
							"internalType": "uint256",
							"name": "",
							"type": "uint256"
						}
					],
					"stateMutability": "view",
					"type": "function"
				},
				{
					"stateMutability": "payable",
					"type": "receive"
				}
			],
			"devdoc": {
				"kind": "dev",
				"methods": {},
				"version": 1
			},
			"evm": {
				"assembly": "    /* \"contracts/FallbackExample.sol\":62:254  contract FallbackExample {\r... */\n  mstore(0x40, 0x80)\n  callvalue\n  dup1\n  iszero\n  tag_1\n  jumpi\n  0x00\n  dup1\n  revert\ntag_1:\n  pop\n  dataSize(sub_0)\n  dup1\n  dataOffset(sub_0)\n  0x00\n  codecopy\n  0x00\n  return\nstop\n\nsub_0: assembly {\n        /* \"contracts/FallbackExample.sol\":62:254  contract FallbackExample {\r... */\n      mstore(0x40, 0x80)\n      jumpi(tag_1, lt(calldatasize, 0x04))\n      shr(0xe0, calldataload(0x00))\n      dup1\n      0x65372147\n      eq\n      tag_3\n      jumpi\n      jump(tag_2)\n    tag_1:\n      jumpi(tag_2, calldatasize)\n        /* \"contracts/FallbackExample.sol\":174:175  1 */\n      0x01\n        /* \"contracts/FallbackExample.sol\":167:173  result */\n      0x00\n        /* \"contracts/FallbackExample.sol\":167:175  result=1 */\n      dup2\n      swap1\n      sstore\n      pop\n        /* \"contracts/FallbackExample.sol\":62:254  contract FallbackExample {\r... */\n      stop\n    tag_2:\n        /* \"contracts/FallbackExample.sol\":241:242  2 */\n      0x02\n        /* \"contracts/FallbackExample.sol\":233:239  result */\n      0x00\n        /* \"contracts/FallbackExample.sol\":233:242  result =2 */\n      dup2\n      swap1\n      sstore\n      pop\n        /* \"contracts/FallbackExample.sol\":62:254  contract FallbackExample {\r... */\n      stop\n        /* \"contracts/FallbackExample.sol\":95:116  uint256 public result */\n    tag_3:\n      callvalue\n      dup1\n      iszero\n      tag_8\n      jumpi\n      0x00\n      dup1\n      revert\n    tag_8:\n      pop\n      tag_9\n      tag_10\n      jump\t// in\n    tag_9:\n      mload(0x40)\n      tag_11\n      swap2\n      swap1\n      tag_12\n      jump\t// in\n    tag_11:\n      mload(0x40)\n      dup1\n      swap2\n      sub\n      swap1\n      return\n    tag_10:\n      sload(0x00)\n      dup2\n      jump\t// out\n        /* \"#utility.yul\":7:125   */\n    tag_14:\n        /* \"#utility.yul\":94:118   */\n      tag_16\n        /* \"#utility.yul\":112:117   */\n      dup2\n        /* \"#utility.yul\":94:118   */\n      tag_17\n      jump\t// in\n    tag_16:\n        /* \"#utility.yul\":89:92   */\n      dup3\n        /* \"#utility.yul\":82:119   */\n      mstore\n        /* \"#utility.yul\":72:125   */\n      pop\n      pop\n      jump\t// out\n        /* \"#utility.yul\":131:353   */\n    tag_12:\n      0x00\n        /* \"#utility.yul\":262:264   */\n      0x20\n        /* \"#utility.yul\":251:260   */\n      dup3\n        /* \"#utility.yul\":247:265   */\n      add\n        /* \"#utility.yul\":239:265   */\n      swap1\n      pop\n        /* \"#utility.yul\":275:346   */\n      tag_19\n        /* \"#utility.yul\":343:344   */\n      0x00\n        /* \"#utility.yul\":332:341   */\n      dup4\n        /* \"#utility.yul\":328:345   */\n      add\n        /* \"#utility.yul\":319:325   */\n      dup5\n        /* \"#utility.yul\":275:346   */\n      tag_14\n      jump\t// in\n    tag_19:\n        /* \"#utility.yul\":229:353   */\n      swap3\n      swap2\n      pop\n      pop\n      jump\t// out\n        /* \"#utility.yul\":359:436   */\n    tag_17:\n      0x00\n        /* \"#utility.yul\":425:430   */\n      dup2\n        /* \"#utility.yul\":414:430   */\n      swap1\n      pop\n        /* \"#utility.yul\":404:436   */\n      swap2\n      swap1\n      pop\n      jump\t// out\n\n    auxdata: 0xa264697066735822122046919a5bf646605a71a52c585601cc22b791ca165b8e19788ebacd1949dba5bf64736f6c63430008000033\n}\n",
				"bytecode": {
					"linkReferences": {},
					"object": "608060405234801561001057600080fd5b5060c98061001f6000396000f3fe608060405260043610601f5760003560e01c80636537214714603757602d565b36602d576001600081905550005b6002600081905550005b348015604257600080fd5b506049605d565b604051605491906070565b60405180910390f35b60005481565b606a816089565b82525050565b6000602082019050608360008301846063565b92915050565b600081905091905056fea264697066735822122046919a5bf646605a71a52c585601cc22b791ca165b8e19788ebacd1949dba5bf64736f6c63430008000033",
					"opcodes": "PUSH1 0x80 PUSH1 0x40 MSTORE CALLVALUE DUP1 ISZERO PUSH2 0x10 JUMPI PUSH1 0x0 DUP1 REVERT JUMPDEST POP PUSH1 0xC9 DUP1 PUSH2 0x1F PUSH1 0x0 CODECOPY PUSH1 0x0 RETURN INVALID PUSH1 0x80 PUSH1 0x40 MSTORE PUSH1 0x4 CALLDATASIZE LT PUSH1 0x1F JUMPI PUSH1 0x0 CALLDATALOAD PUSH1 0xE0 SHR DUP1 PUSH4 0x65372147 EQ PUSH1 0x37 JUMPI PUSH1 0x2D JUMP JUMPDEST CALLDATASIZE PUSH1 0x2D JUMPI PUSH1 0x1 PUSH1 0x0 DUP2 SWAP1 SSTORE POP STOP JUMPDEST PUSH1 0x2 PUSH1 0x0 DUP2 SWAP1 SSTORE POP STOP JUMPDEST CALLVALUE DUP1 ISZERO PUSH1 0x42 JUMPI PUSH1 0x0 DUP1 REVERT JUMPDEST POP PUSH1 0x49 PUSH1 0x5D JUMP JUMPDEST PUSH1 0x40 MLOAD PUSH1 0x54 SWAP2 SWAP1 PUSH1 0x70 JUMP JUMPDEST PUSH1 0x40 MLOAD DUP1 SWAP2 SUB SWAP1 RETURN JUMPDEST PUSH1 0x0 SLOAD DUP2 JUMP JUMPDEST PUSH1 0x6A DUP2 PUSH1 0x89 JUMP JUMPDEST DUP3 MSTORE POP POP JUMP JUMPDEST PUSH1 0x0 PUSH1 0x20 DUP3 ADD SWAP1 POP PUSH1 0x83 PUSH1 0x0 DUP4 ADD DUP5 PUSH1 0x63 JUMP JUMPDEST SWAP3 SWAP2 POP POP JUMP JUMPDEST PUSH1 0x0 DUP2 SWAP1 POP SWAP2 SWAP1 POP JUMP INVALID LOG2 PUSH5 0x6970667358 0x22 SLT KECCAK256 CHAINID SWAP2 SWAP11 JUMPDEST 0xF6 CHAINID PUSH1 0x5A PUSH18 0xA52C585601CC22B791CA165B8E19788EBACD NOT 0x49 0xDB 0xA5 0xBF PUSH5 0x736F6C6343 STOP ADDMOD STOP STOP CALLER "
				},
				"gasEstimates": {
					"creation": {
						"codeDepositCost": "40200",
						"executionCost": "93",
						"totalCost": "40293"
					},
					"external": {
						"": "20099",
						"result()": "1107"
					}
				},
				"methodIdentifiers": {
					"result()": "65372147"
				}
			},
			"storageLayout": {
				"storage": [
					{
						"astId": 3,
						"contract": "contracts/FallbackExample.sol:FallbackExample",
						"label": "result",
						"offset": 0,
						"slot": "0",
						"type": "t_uint256"
					}
				],
				"types": {
					"t_uint256": {
						"encoding": "inplace",
						"label": "uint256",
						"numberOfBytes": "32"
					}
				}
			},
			"userdoc": {
				"kind": "user",
				"methods": {},
				"version": 1
			}
		}
	}
}